:030000000200C03B
:0C00C000787FE4F6D8FD75811002002660
:03001F00DFFE22DF
:070003007FC812000A7FC84C
:10000A00AE07AF061EEF600C7FF512001F7FF512D8
:05001A00001F80EE2232
:02009800AD07B2
:10009A00E4FCECC39D500E1200031200037FC81249
:0500AA00000A0C80EDCE
:0100AF00222E
:1000B000759850438920758DFDD28ED2ACD2AF2277
:0800D6008F993099FDC29922B7
:10005A008B0D8A0E890FAB0DAA0EA90F12007F60B5
:10006A0013050FE50F7002050E14F912007FFF1237
:05007A0000D680E22227
:030023000200CC0C
:0A00CC00C2AC309802C298D2AC32E8
:10002600C2807F0212000AD2801200B07508AA753B
:100036000C55750920750A01750BF07B007A00795D
:100046000812005A7F011200987B007A0079081284
:04005600005A80F0DC
:10007F00BB010689828A83E0225002E722BBFE027F
:09008F00E32289828A83E49322B2
:00000001FF
