:030000000200B447
:0C00B400787FE4F6D8FD75810B0200A6F1
:0E00A600C2807F0112000AD28012009680FEF6
:10009600759850438920758DF3D28ED2ACD2AF229B
:0800C0008F993099FDC29922CD
:100026008B088A09890AAB08AA09A90A1200656021
:1000360013050AE50A7002050914F9120065FF1294
:0500460000C080E22271
:0300230002004B8D
:10004B00C0D075D000C007C2AC309807C298AF992A
:0A005B001200C0D2ACD007D0D032A2
:03001F00DFFE22DF
:070003007FC812000A7FC84C
:10000A00AE07AF061EEF600C7FF512001F7FF512D8
:05001A00001F80EE2232
:02007E00AD07CC
:10008000E4FCECC39D500E1200031200037FC81263
:05009000000A0C80EDE8
:010095002248
:10006500BB010689828A83E0225002E722BBFE0299
:09007500E32289828A83E49322CC
:00000001FF
